:1000000002308A00582A0000D4224E102D10CD292B
:10001000532B0000CB224E243A10411D253675008B
:100020008316891083128910831609108312091010
:10003000831688018312260888008316091183120B
:10004000091583160911831209115230F700F70BB5
:1000500027282A280000080026308400831300087F
:1000600003193F280630F800F701F70B3528F80B85
:1000700034287B30F700F70B3B28800B3228080030
:100080003830A60010200530A6002C200C30A60029
:1000900010200130A60010200230A6002C208A116A
:1000A0000A12812A83168910831289108316091077
:1000B000831209148316880183122F08880083167F
:1000C000091183120915831609118312091152307F
:1000D000F700F70B69286C28000008000B08A60041
:1000E0008B13831603178C170C1400000000831267
:1000F0000313A61B8B1703170C087F390319C2289B
:100100000313A60003170D080313A70003170F0816
:100110000313A8002608AF005220270803178D00FC
:100120000313280803178F0003130B08A9008B1370
:10013000831603178C170C1400000000831203139E
:10014000A91B8B1703170C0D0E0D7F390319C2283D
:100150000313A60003170D080313A70003170F08C6
:100160000313A8002608AF005220270803178D00AC
:100170000313280803178F008D0A03198F0A03132E
:100180006E28031703138A110A128B2AF801F9014A
:10019000F701FA012908031DD02828080319EA28C5
:1001A0001030AA000310A60DA70DF70DFA0D2908AF
:1001B0007A02031DDD2828087702031CE628280898
:1001C000F702031CFA032908FA020314F80DF90DCB
:1001D000AA0BD22808008E30F7002908F80028085A
:1001E000F900FA01F808031DFF287908F800F90161
:1001F0000830F702F808031DFF28F701072903104C
:10020000F81B0629F90DF80DF703FF28F81308006D
:10021000280803197829B0002C0803197829B00799
:10022000031819297F30B002031C78290319782993
:100230001D298130B007031878293008F700F8012C
:10024000F901FA012908B400B4172A08B3002B08F1
:10025000B2001830B000B101321C46292F08FA074D
:10026000031C3829F90A031D3829F80A0319B117A4
:100270002E08F907031C3F29F80A0319B1172D08A6
:10028000AA00AA172A08F8070318B117B10DF80C2D
:10029000F90CFA0CB40CB30CB20C0310B00B2B29F4
:1002A0000130F70703187829F81B5D29B40DFA0D02
:1002B000F90DF80DF70303197829B41F6E29FA0A0E
:1002C000031D6E29F90A031D6E29F80A031D6E2904
:1002D000F80CF90CFA0CF70A031978292908B1006F
:1002E0002D08B106B11F7629F8177C29F8137C294F
:1002F000F701F801F901FA0108008E30F70026082D
:10030000F7022708F9002808F800F917F708031979
:1003100094290310F908031D9029F808031994295A
:10032000F90CF80CF70B8929A71F9B29F809F90983
:10033000F80A0319F90A08000B08A7008B138316A3
:1003400003178C170C140000000083120313A71B63
:100350008B170318D32903170C087F390313A70041
:1003600003170D080313A80003170F080313A900B0
:100370002708AF005220280803178D00031329080F
:1003800003178F0003130B08AA008B1383160317A0
:100390008C170C140000000083120313AA1B8B1788
:1003A000A60BD329F22903170C0D0E0D7F39031369
:1003B000A70003170D080313A80003170F08031362
:1003C000A9002708AF005220280803178D00031347
:1003D000290803178F008D0A03198F0A03100313CE
:1003E000A60B9C298A110A12112BAE010408AD003C
:1003F0002E10831B2E14270EF038A900A907E23E09
:10040000AA00323EAC0027080F39AA07AA07AC079A
:10041000E93EAB00AB07AB07260E0F39AB07AC07C5
:10042000AB0DAC0DAC09AC0D26080F39AC07A90D0E
:100430000730A8000A30AC07AB03031C1B2AAB072C
:10044000AA03031C1F2AAA07A903031C232AA9071E
:10045000A803031C272A28308400831307302D05A6
:100460002D1384072C30040203192D170008F70000
:10047000031D422A2D1B422A2D1A542AAD19422A45
:100480002030452AAD152D123030F707A70104089A
:10049000A6002710831B27147708AF0052202608D8
:1004A0008400831327188317840A2D1F322A08001B
:1004B00003081F398300A101A001A301A201FF309D
:1004C000A400831603170908C039890003131F12FB
:1004D0009F12003003178800831287018801890169
:1004E00083130F30831603138500003087008312B7
:1004F000A40083168800091089100911891183123C
:1005000040288030A6001020043003178D000030F2
:100510008F0003136E281F139F1783169F178312D4
:100520001F14831603170908C039890003131F120B
:100530009F120330031788000030F8008312031362
:100540001F08C33978049F002030F700F70BA62A54
:10055000A92A0000A101A001A5012508633C031CF4
:10056000C12A9F149F18B22A83161E088312A0075F
:100570001E0803181E0FA1070130A6002C20A50A93
:10058000AD2A2108A7002008A600A9016430A80010
:10059000C6207908A7007808A6007908A90078087D
:1005A000A800EB207A08AB007908AA007808A90017
:1005B0007708A800E330AF003630AE007A30AD00E7
:1005C0007D30AC0008217A08A9007908A8007808D5
:1005D000A7007708A6007D217908A1007808A0006F
:1005E000A108031DF72A2008283C0318FE2A24101E
:1005F00024088316870083120714042B2410240870
:100600008316870083120710C030A60010200A301E
:1006100003178D0000308F00031008300313A6006D
:100620009C29103084002108A7002008A600F5218D
:100630000430F8001F08C33978049F002030F70009
:10064000F70B202B232B0000A301A201A5012508F5
:10065000633C031C3B2B9F149F182C2B83161E08F6
:100660008312A2071E0803181E0FA3070130A6005D
:100670002C20A50A272B2308A7002208A600A901E1
:100680006430A800C6207908A7007808A600790879
:10069000A9007808A800EB207A08AB007908AA0026
:1006A0007808A9007708A800E330AF003630AE0024
:1006B0007A30AD007D30AC0008217A08A9007908B5
:1006C000A8007808A7007708A6007D217908A30074
:1006D0007808A200A308031D712B22082D3C0318E3
:1006E000782BA410240883168700831287147E2B8E
:1006F000A41024088316870083128710CC30A6002C
:1007000010204230AF0052203A30AF00522010305B
:1007100084002308A7002208A600F52183160317EA
:040720009C2A6300AC
:04400E00E22FFF3F5F
:00000001FF
;PIC16F887
;CRC=DD8A  CREATED="03-Thg8-24 00:20"
