:1000000001308A0080290000C427CE23A0214F1090
:10001000C4210000CC22D6224C1D25197500831660
:100020008910831289108316091083120910831610
:10003000880183122208880083160911831209158A
:1000400083160911831209112930F700F70B2628AE
:1000500000000800223084008313000803193E28A2
:100060000330F800F701F70B3328F80B32283C3047
:10007000F700F70B39283C28800B3028080038306F
:10008000A2000F200530A2002A200C30A2000F2071
:100090000130A2000F200230A2002A208A110A1289
:1000A000C1291030A800F701FA01A50CA40C031C0B
:1000B0005F282608F7070318FA0A2708FA07FA0C38
:1000C000F70CF90CF80CA80B55288A110A12312AE2
:1000D000831689108312891083160910831209145C
:1000E000831688018312260888008316091183125B
:1000F000091583160911831209112930F700F70B2E
:100100007F28000008000B08A2008B13831603173A
:100110008C170C140000000083120313A21B8B1712
:1001200003170C087F390319D7280313A2000317FC
:100130000D080313A30003170F080313A4002208DC
:10014000A6006820230803178D0003132408031753
:100150008F0003130B08A5008B13831603178C174E
:100160000C140000000083120313A51B8B17031748
:100170000C0D0E0D7F390319D7280313A2000317A6
:100180000D080313A30003170F080313A40022088C
:10019000A6006820230803178D0003132408031703
:1001A0008F008D0A03198F0A031383280317031383
:1001B0008A110A12512A0B08A3008B138316031706
:1001C0008C170C140000000083120313A31B8B1761
:1001D0000318122903170C087F390313A300031710
:1001E0000D080313A40003170F080313A500230829
:1001F000A6006820240803178D00031325080317A1
:100200008F0003130B08A6008B13831603178C179C
:100210000C140000000083120313A61B8B17A20B03
:100220001229312903170C0D0E0D7F390313A3007A
:1002300003170D080313A40003170F080313A500E9
:100240002308A6006820240803178D00031325083F
:1002500003178F008D0A03198F0A03100313A20BD3
:10026000DB288A110A125E2A2508F80124020318E5
:100270003C292408F7004829F7010830A600A40DFE
:10028000F70D250877020318F700F80DA60B3F2994
:10029000080078082208A4006430A50034217708FB
:1002A000A20078083030031D5C29A31C6329A31920
:1002B0006329231A20305F29A31123122314F8077E
:1002C0007808A60068202208A4000A30A50034217E
:1002D0007708A20078083030031D7429A319782903
:1002E000231C7829231A2030F8077808A6006820F4
:1002F0003030A2072208A60068208A110A12632A59
:1003000003081F398300A001FF30A10083160317E3
:100310000908C039890003131F129F120030031708
:1003200088008312870188018901831300308316B6
:1003300003138500FF308600003087008312A10080
:10034000831688000910891009118911F8000638F0
:10035000831292007C30831692008312A110210830
:1003600083168700831287100C309D009B011D08A7
:10037000CF399D00211121088316870083120711B0
:100380003F28831686168312861AD0299B011D08E2
:10039000CF399D0021112108831687008312071190
:1003A000831606178312061BFE2983160614831272
:1003B0000618DC290130A0008316861483128618E3
:1003C000E3290230A0008316061583120619EA29D4
:1003D0000330A0008316861583128619F129043094
:1003E000A000831606168312061AF8290530A0000D
:1003F000831686168312861E642A262A83160614FE
:1004000083120618052A0630A0008316861483126C
:1004100086180C2A0730A0008316061583120619C9
:10042000132A0830A00083168615831286191A2A0B
:100430000930A000831606168312061A212A0A30F4
:10044000A000831686168312861E642AA301200844
:10045000A2002308A5002008A400A7013230A600AE
:1004600051287908A3007808A200A30CA20CA30CC1
:10047000A20CA30C22089B00A30C230C3039F7001C
:100480001D08CF3977049D006430A2002A208330F4
:10049000A2000F20043003178D0000308F000313DB
:1004A0008328C430A2000F200A3003178D000030CB
:1004B0008F00031006300313A200DB282008A200DF
:0A04C0001130A3004929C12963008F
:04400E00E22FFF3F5F
:00000001FF
;PIC16F887
;CRC=ECF0  CREATED="05-Thg8-24 00:06"
