:1000000000308A0075280000FF00030E8301A10064
:100010000A08A0008A010408A2007708A300780853
:10002000A4007908A5007A08A600831383128C30F7
:100030008400801E1D288C1A2E2822088400230884
:10004000F7002408F8002508F9002608FA0020081F
:100050008A00210E8300FF0E7F0E09008A110A120A
:100060003F280A108A100A118207C034F934A434D8
:10007000B034993492348234F834803490348C1E05
:100080003F281A08A700A7080319A8018C128A1193
:100090000A121D282A3084008313000803195D28E2
:1000A0000630F800F701F70B5328F80B52287B3085
:1000B000F700F70B5928800B50288A110A12B12833
:1000C0002B08F8012A02031868282A08F700742868
:1000D000F7010830AC00AA0DF70D2B0877020318C2
:1000E000F700F80DAC0B6B28080003081F398300DC
:1000F00083160317871508300313990002309A00FE
:10010000A6309800903083129800A801FF30A90013
:10011000831603170908C039890003131F129F12A1
:100120000030031788008312870188018901831337
:10013000013083160313850000308600803087006D
:100140008312A9000030831688008C16C0308312F9
:100150008B048316051483120518C6281430AA00D0
:100160004A288316051483120518C628A80A2808E9
:10017000633C0318BD280130A80028080C1EBE28C7
:100180009900831605148312051CC1282808AA00AB
:100190000A30AB00602078083120AA00831688015D
:1001A00083122A0888002808AA000A30AB006020C1
:1001B00077083120AA008316860183122A08860058
:0401C000A928630007
:04400E00E22FFF3F5F
:00000001FF
;PIC16F887
;CRC=7E38  CREATED="04-Thg8-24 23:26"
