:1000000000308A0072280000FF00030E8301A10067
:100010000A08A0008A010408A2007708A300780853
:10002000A4007908A5007A08A600831383128C30F7
:100030008400801E1D288C1A2E2822088400230884
:10004000F7002408F8002508F9002608FA0020081F
:100050008A00210E8300FF0E7F0E09008A110A120A
:100060003F280A108A100A118207C034F934A434D8
:10007000B034993492348234F834803490348C1E05
:100080003F281A08A7008C128A110A121D2829304D
:1000900084008313000803195A280630F800F7017A
:1000A000F70B5028F80B4F287B30F700F70B56283A
:1000B000800B4D288A110A12AD282A08F80129025E
:1000C000031865282908F7007128F7010830AB00EC
:1000D000A90DF70D2A0877020318F700F80DAB0BEE
:1000E0006828080003081F39830083160317871543
:1000F00008300313990002309A00A630980090301F
:1001000083129800FF30A800831603170908C0392E
:10011000890003131F129F120030031788008312F7
:100120008701880189018313013083160313850039
:1001300000308600803087008312A80000308316CC
:1001400088008C16C03083128B048316051483122A
:100150000518BC281430A9004728831605148312FB
:100160000518BC2800300C1EB3289900A70183167F
:1001700005148312051CB7282708A9000A30AA0015
:100180005D2078083120A900831688018312290890
:1001900088002708A9000A30AA005D2077083120CE
:1001A000A90083168601831229088600A52863000A
:04400E00E22FFF3F5F
:00000001FF
;PIC16F887
;CRC=A3CE  CREATED="04-Thg8-24 23:49"
